:100000000208EB8FA0D2B67F027E00E4FDFCC3EDB8
:100010009FEC9E5015E4FBFA0BBB00010ABA04F8F2
:10002000BBFBF50DBD00010C80E4228B088A098919
:100030000AAB08AA09A90A1200506013050AE50ACA
:100040007002050914F9120050FF12007180E222BB
:10005000BB010689828A83E0225002E722BBFE02AE
:10006000E32289828A83E49322C2B7120003C2B6D4
:1000700022D2B7120003C2B6222044524F5753591E
:10008000204452495645522000204445544543548B
:10009000494E472053595354454D2000204452495E
:1000A000564552204953202020200020534C4545DE
:1000B00050494E472E2E2E202000204452495645AE
:0900C00052204953204E4F540018
:10080000C292C293C294C295C2917F381200697F8E
:100810000E1200697F801200697BFF7A00797912DD
:10082000002B7FC01200697BFF7A00798912002BB0
:100830007FF47E0112000B7F01120069209017D215
:1008400091C292C293C294C2957F801200697BFFCD
:100850007A00799C8015C291D292C293D294C295AB
:100860007F801200697BFF7A0079BA12002B7FC06B
:100870001200697BFF7A0079AB12002B7FC87E00E3
:0508800012000B80B71F
:0C08EB00787FE4F6D8FD75810A02080051
:00000001FF
